{
  "_format": "hh-sol-artifact-1",
  "contractName": "Lottery",
  "sourceName": "contracts/Lottery.sol",
  "abi": [
    {
      "inputs": [
        {
          "internalType": "address",
          "name": "vrfCoordinatorV2",
          "type": "address"
        },
        {
          "internalType": "uint256",
          "name": "entranceFee",
          "type": "uint256"
        },
        {
          "internalType": "bytes32",
          "name": "gasLane",
          "type": "bytes32"
        },
        {
          "internalType": "uint64",
          "name": "subscriptionId",
          "type": "uint64"
        },
        {
          "internalType": "uint32",
          "name": "callbackGasLimit",
          "type": "uint32"
        },
        {
          "internalType": "uint256",
          "name": "interval",
          "type": "uint256"
        }
      ],
      "stateMutability": "nonpayable",
      "type": "constructor"
    },
    {
      "inputs": [],
      "name": "Lottery__NotEnoughEthEntered",
      "type": "error"
    },
    {
      "inputs": [],
      "name": "Lottery__NotOpen",
      "type": "error"
    },
    {
      "inputs": [],
      "name": "Lottery__TransferFailed",
      "type": "error"
    },
    {
      "inputs": [
        {
          "internalType": "uint256",
          "name": "currentBalance",
          "type": "uint256"
        },
        {
          "internalType": "uint256",
          "name": "numPlayers",
          "type": "uint256"
        },
        {
          "internalType": "uint256",
          "name": "lotteryState",
          "type": "uint256"
        }
      ],
      "name": "Lottery__UpkeepNotNeeded",
      "type": "error"
    },
    {
      "inputs": [
        {
          "internalType": "address",
          "name": "have",
          "type": "address"
        },
        {
          "internalType": "address",
          "name": "want",
          "type": "address"
        }
      ],
      "name": "OnlyCoordinatorCanFulfill",
      "type": "error"
    },
    {
      "anonymous": false,
      "inputs": [
        {
          "indexed": true,
          "internalType": "address",
          "name": "player",
          "type": "address"
        }
      ],
      "name": "LotteryEnter",
      "type": "event"
    },
    {
      "anonymous": false,
      "inputs": [
        {
          "indexed": true,
          "internalType": "uint256",
          "name": "requestId",
          "type": "uint256"
        }
      ],
      "name": "RequestLotteryWinner",
      "type": "event"
    },
    {
      "anonymous": false,
      "inputs": [
        {
          "indexed": true,
          "internalType": "address",
          "name": "winner",
          "type": "address"
        }
      ],
      "name": "WinnerPicked",
      "type": "event"
    },
    {
      "inputs": [
        {
          "internalType": "bytes",
          "name": "",
          "type": "bytes"
        }
      ],
      "name": "checkUpkeep",
      "outputs": [
        {
          "internalType": "bool",
          "name": "upkeepNeeded",
          "type": "bool"
        },
        {
          "internalType": "bytes",
          "name": "",
          "type": "bytes"
        }
      ],
      "stateMutability": "view",
      "type": "function"
    },
    {
      "inputs": [],
      "name": "enterLottery",
      "outputs": [],
      "stateMutability": "payable",
      "type": "function"
    },
    {
      "inputs": [],
      "name": "getEntranceFee",
      "outputs": [
        {
          "internalType": "uint256",
          "name": "",
          "type": "uint256"
        }
      ],
      "stateMutability": "view",
      "type": "function"
    },
    {
      "inputs": [],
      "name": "getInterval",
      "outputs": [
        {
          "internalType": "uint256",
          "name": "",
          "type": "uint256"
        }
      ],
      "stateMutability": "view",
      "type": "function"
    },
    {
      "inputs": [],
      "name": "getLatestTimeStamp",
      "outputs": [
        {
          "internalType": "uint256",
          "name": "",
          "type": "uint256"
        }
      ],
      "stateMutability": "view",
      "type": "function"
    },
    {
      "inputs": [],
      "name": "getLotteryState",
      "outputs": [
        {
          "internalType": "enum Lottery.LotteryState",
          "name": "",
          "type": "uint8"
        }
      ],
      "stateMutability": "view",
      "type": "function"
    },
    {
      "inputs": [],
      "name": "getNumWords",
      "outputs": [
        {
          "internalType": "uint256",
          "name": "",
          "type": "uint256"
        }
      ],
      "stateMutability": "pure",
      "type": "function"
    },
    {
      "inputs": [],
      "name": "getNumberOfPlayers",
      "outputs": [
        {
          "internalType": "uint256",
          "name": "",
          "type": "uint256"
        }
      ],
      "stateMutability": "view",
      "type": "function"
    },
    {
      "inputs": [
        {
          "internalType": "uint256",
          "name": "index",
          "type": "uint256"
        }
      ],
      "name": "getPlayer",
      "outputs": [
        {
          "internalType": "address",
          "name": "",
          "type": "address"
        }
      ],
      "stateMutability": "view",
      "type": "function"
    },
    {
      "inputs": [],
      "name": "getRecentWinner",
      "outputs": [
        {
          "internalType": "address",
          "name": "",
          "type": "address"
        }
      ],
      "stateMutability": "view",
      "type": "function"
    },
    {
      "inputs": [],
      "name": "getRequestConfirmations",
      "outputs": [
        {
          "internalType": "uint256",
          "name": "",
          "type": "uint256"
        }
      ],
      "stateMutability": "pure",
      "type": "function"
    },
    {
      "inputs": [
        {
          "internalType": "bytes",
          "name": "",
          "type": "bytes"
        }
      ],
      "name": "performUpkeep",
      "outputs": [],
      "stateMutability": "nonpayable",
      "type": "function"
    },
    {
      "inputs": [
        {
          "internalType": "uint256",
          "name": "requestId",
          "type": "uint256"
        },
        {
          "internalType": "uint256[]",
          "name": "randomWords",
          "type": "uint256[]"
        }
      ],
      "name": "rawFulfillRandomWords",
      "outputs": [],
      "stateMutability": "nonpayable",
      "type": "function"
    }
  ],
  "bytecode": "0x6101606040523480156200001257600080fd5b506040516200188f3803806200188f8339818101604052810190620000389190620002a0565b858073ffffffffffffffffffffffffffffffffffffffff1660808173ffffffffffffffffffffffffffffffffffffffff1660601b81525050508460a081815250508573ffffffffffffffffffffffffffffffffffffffff1660c08173ffffffffffffffffffffffffffffffffffffffff1660601b815250508360e081815250508267ffffffffffffffff166101008167ffffffffffffffff1660c01b815250508163ffffffff166101208163ffffffff1660e01b815250506000600160146101000a81548160ff021916908360018111156200011957620001186200033c565b5b0217905550426002819055508061014081815250505050505050506200036b565b600080fd5b600073ffffffffffffffffffffffffffffffffffffffff82169050919050565b60006200016c826200013f565b9050919050565b6200017e816200015f565b81146200018a57600080fd5b50565b6000815190506200019e8162000173565b92915050565b6000819050919050565b620001b981620001a4565b8114620001c557600080fd5b50565b600081519050620001d981620001ae565b92915050565b6000819050919050565b620001f481620001df565b81146200020057600080fd5b50565b6000815190506200021481620001e9565b92915050565b600067ffffffffffffffff82169050919050565b62000239816200021a565b81146200024557600080fd5b50565b60008151905062000259816200022e565b92915050565b600063ffffffff82169050919050565b6200027a816200025f565b81146200028657600080fd5b50565b6000815190506200029a816200026f565b92915050565b60008060008060008060c08789031215620002c057620002bf6200013a565b5b6000620002d089828a016200018d565b9650506020620002e389828a01620001c8565b9550506040620002f689828a0162000203565b94505060606200030989828a0162000248565b93505060806200031c89828a0162000289565b92505060a06200032f89828a01620001c8565b9150509295509295509295565b7f4e487b7100000000000000000000000000000000000000000000000000000000600052602160045260246000fd5b60805160601c60a05160c05160601c60e0516101005160c01c6101205160e01c610140516114a8620003e76000396000818161068701526107300152600061051f015260006104fc015260006104db0152600061049f0152600081816102fa0152610756015260008181610320015261037401526114a86000f3fe6080604052600436106100c25760003560e01c80635f1b0fd81161007f57806391ad27b41161005957806391ad27b414610259578063c1af578514610284578063e55ae4e81461028e578063fd6673f5146102cb576100c2565b80635f1b0fd8146101c55780636b68c03c146101f05780636e04ff0d1461021b576100c2565b806309bc33a7146100c75780631fe543e3146100f2578063320229eb1461011b5780634585e33b14610146578063473f1ddc1461016f57806353a2c19a1461019a575b600080fd5b3480156100d357600080fd5b506100dc6102f6565b6040516100e99190610c29565b60405180910390f35b3480156100fe57600080fd5b5061011960048036038101906101149190610ddd565b61031e565b005b34801561012757600080fd5b506101306103de565b60405161013d9190610c29565b60405180910390f35b34801561015257600080fd5b5061016d60048036038101906101689190610e94565b6103e8565b005b34801561017b57600080fd5b506101846105e7565b6040516101919190610f22565b60405180910390f35b3480156101a657600080fd5b506101af610611565b6040516101bc9190610c29565b60405180910390f35b3480156101d157600080fd5b506101da610620565b6040516101e79190610c29565b60405180910390f35b3480156101fc57600080fd5b5061020561062d565b6040516102129190610fb4565b60405180910390f35b34801561022757600080fd5b50610242600480360381019061023d9190611084565b610644565b604051610250929190611170565b60405180910390f35b34801561026557600080fd5b5061026e61072c565b60405161027b9190610c29565b60405180910390f35b61028c610754565b005b34801561029a57600080fd5b506102b560048036038101906102b091906111a0565b6108c3565b6040516102c29190610f22565b60405180910390f35b3480156102d757600080fd5b506102e061090a565b6040516102ed9190610c29565b60405180910390f35b60007f0000000000000000000000000000000000000000000000000000000000000000905090565b7f000000000000000000000000000000000000000000000000000000000000000073ffffffffffffffffffffffffffffffffffffffff163373ffffffffffffffffffffffffffffffffffffffff16146103d057337f00000000000000000000000000000000000000000000000000000000000000006040517f1cf993f40000000000000000000000000000000000000000000000000000000081526004016103c79291906111cd565b60405180910390fd5b6103da8282610916565b5050565b6000600254905090565b600061040260405180602001604052806000815250610644565b509050806104715747600080549050600160149054906101000a900460ff16600181111561043357610432610f3d565b5b6040517f6e195f25000000000000000000000000000000000000000000000000000000008152600401610468939291906111f6565b60405180910390fd5b60018060146101000a81548160ff0219169083600181111561049657610495610f3d565b5b021790555060007f000000000000000000000000000000000000000000000000000000000000000073ffffffffffffffffffffffffffffffffffffffff16635d3b1d307f00000000000000000000000000000000000000000000000000000000000000007f000000000000000000000000000000000000000000000000000000000000000060037f000000000000000000000000000000000000000000000000000000000000000060016040518663ffffffff1660e01b81526004016105609594939291906112a5565b602060405180830381600087803b15801561057a57600080fd5b505af115801561058e573d6000803e3d6000fd5b505050506040513d601f19601f820116820180604052508101906105b2919061130d565b9050807feddaba8a57dcfd3a637ac76edea7af81443028e0bd6e6cb23bd210a4a85ba85660405160405180910390a250505050565b6000600160009054906101000a900473ffffffffffffffffffffffffffffffffffffffff16905090565b6000600163ffffffff16905090565b6000600361ffff16905090565b6000600160149054906101000a900460ff16905090565b600060606000600160149054906101000a900460ff16600181111561066c5761066b610f3d565b5b600060018111156106805761067f610f3d565b5b14905060007f0000000000000000000000000000000000000000000000000000000000000000600254426106b49190611369565b119050600080600080549050119050600080471190508380156106d45750825b80156106dd5750815b80156106e65750805b9550856040518060400160405280600381526020017f30783000000000000000000000000000000000000000000000000000000000008152509550955050505050915091565b60007f0000000000000000000000000000000000000000000000000000000000000000905090565b7f00000000000000000000000000000000000000000000000000000000000000003410156107ae576040517f3e8f808800000000000000000000000000000000000000000000000000000000815260040160405180910390fd5b600060018111156107c2576107c1610f3d565b5b600160149054906101000a900460ff1660018111156107e4576107e3610f3d565b5b1461081b576040517fe76be6fc00000000000000000000000000000000000000000000000000000000815260040160405180910390fd5b6000339080600181540180825580915050600190039060005260206000200160009091909190916101000a81548173ffffffffffffffffffffffffffffffffffffffff021916908373ffffffffffffffffffffffffffffffffffffffff1602179055503373ffffffffffffffffffffffffffffffffffffffff167f1d64fb5ba9f2548c5b98468d58f25b87b9e866afee0122e92d9fe722bf85076c60405160405180910390a2565b60008082815481106108d8576108d761139d565b5b9060005260206000200160009054906101000a900473ffffffffffffffffffffffffffffffffffffffff169050919050565b60008080549050905090565b60008080549050826000815181106109315761093061139d565b5b602002602001015161094391906113fb565b9050600080828154811061095a5761095961139d565b5b9060005260206000200160009054906101000a900473ffffffffffffffffffffffffffffffffffffffff16905080600160006101000a81548173ffffffffffffffffffffffffffffffffffffffff021916908373ffffffffffffffffffffffffffffffffffffffff1602179055506000600160146101000a81548160ff021916908360018111156109ee576109ed610f3d565b5b0217905550600067ffffffffffffffff811115610a0e57610a0d610c9a565b5b604051908082528060200260200182016040528015610a3c5781602001602082028036833780820191505090505b5060009080519060200190610a52929190610b69565b504260028190555060008173ffffffffffffffffffffffffffffffffffffffff1647604051610a809061145d565b60006040518083038185875af1925050503d8060008114610abd576040519150601f19603f3d011682016040523d82523d6000602084013e610ac2565b606091505b5050905080610afd576040517f1c94012000000000000000000000000000000000000000000000000000000000815260040160405180910390fd5b600160009054906101000a900473ffffffffffffffffffffffffffffffffffffffff1673ffffffffffffffffffffffffffffffffffffffff167f5b690ec4a06fe979403046eaeea5b3ce38524683c3001f662c8b5a829632f7df60405160405180910390a25050505050565b828054828255906000526020600020908101928215610be2579160200282015b82811115610be15782518260006101000a81548173ffffffffffffffffffffffffffffffffffffffff021916908373ffffffffffffffffffffffffffffffffffffffff16021790555091602001919060010190610b89565b5b509050610bef9190610bf3565b5090565b5b80821115610c0c576000816000905550600101610bf4565b5090565b6000819050919050565b610c2381610c10565b82525050565b6000602082019050610c3e6000830184610c1a565b92915050565b6000604051905090565b600080fd5b600080fd5b610c6181610c10565b8114610c6c57600080fd5b50565b600081359050610c7e81610c58565b92915050565b600080fd5b6000601f19601f8301169050919050565b7f4e487b7100000000000000000000000000000000000000000000000000000000600052604160045260246000fd5b610cd282610c89565b810181811067ffffffffffffffff82111715610cf157610cf0610c9a565b5b80604052505050565b6000610d04610c44565b9050610d108282610cc9565b919050565b600067ffffffffffffffff821115610d3057610d2f610c9a565b5b602082029050602081019050919050565b600080fd5b6000610d59610d5484610d15565b610cfa565b90508083825260208201905060208402830185811115610d7c57610d7b610d41565b5b835b81811015610da55780610d918882610c6f565b845260208401935050602081019050610d7e565b5050509392505050565b600082601f830112610dc457610dc3610c84565b5b8135610dd4848260208601610d46565b91505092915050565b60008060408385031215610df457610df3610c4e565b5b6000610e0285828601610c6f565b925050602083013567ffffffffffffffff811115610e2357610e22610c53565b5b610e2f85828601610daf565b9150509250929050565b600080fd5b60008083601f840112610e5457610e53610c84565b5b8235905067ffffffffffffffff811115610e7157610e70610e39565b5b602083019150836001820283011115610e8d57610e8c610d41565b5b9250929050565b60008060208385031215610eab57610eaa610c4e565b5b600083013567ffffffffffffffff811115610ec957610ec8610c53565b5b610ed585828601610e3e565b92509250509250929050565b600073ffffffffffffffffffffffffffffffffffffffff82169050919050565b6000610f0c82610ee1565b9050919050565b610f1c81610f01565b82525050565b6000602082019050610f376000830184610f13565b92915050565b7f4e487b7100000000000000000000000000000000000000000000000000000000600052602160045260246000fd5b60028110610f7d57610f7c610f3d565b5b50565b6000819050610f8e82610f6c565b919050565b6000610f9e82610f80565b9050919050565b610fae81610f93565b82525050565b6000602082019050610fc96000830184610fa5565b92915050565b600080fd5b600067ffffffffffffffff821115610fef57610fee610c9a565b5b610ff882610c89565b9050602081019050919050565b82818337600083830152505050565b600061102761102284610fd4565b610cfa565b90508281526020810184848401111561104357611042610fcf565b5b61104e848285611005565b509392505050565b600082601f83011261106b5761106a610c84565b5b813561107b848260208601611014565b91505092915050565b60006020828403121561109a57611099610c4e565b5b600082013567ffffffffffffffff8111156110b8576110b7610c53565b5b6110c484828501611056565b91505092915050565b60008115159050919050565b6110e2816110cd565b82525050565b600081519050919050565b600082825260208201905092915050565b60005b83811015611122578082015181840152602081019050611107565b83811115611131576000848401525b50505050565b6000611142826110e8565b61114c81856110f3565b935061115c818560208601611104565b61116581610c89565b840191505092915050565b600060408201905061118560008301856110d9565b81810360208301526111978184611137565b90509392505050565b6000602082840312156111b6576111b5610c4e565b5b60006111c484828501610c6f565b91505092915050565b60006040820190506111e26000830185610f13565b6111ef6020830184610f13565b9392505050565b600060608201905061120b6000830186610c1a565b6112186020830185610c1a565b6112256040830184610c1a565b949350505050565b6000819050919050565b6112408161122d565b82525050565b600067ffffffffffffffff82169050919050565b61126381611246565b82525050565b600061ffff82169050919050565b61128081611269565b82525050565b600063ffffffff82169050919050565b61129f81611286565b82525050565b600060a0820190506112ba6000830188611237565b6112c7602083018761125a565b6112d46040830186611277565b6112e16060830185611296565b6112ee6080830184611296565b9695505050505050565b60008151905061130781610c58565b92915050565b60006020828403121561132357611322610c4e565b5b6000611331848285016112f8565b91505092915050565b7f4e487b7100000000000000000000000000000000000000000000000000000000600052601160045260246000fd5b600061137482610c10565b915061137f83610c10565b9250828210156113925761139161133a565b5b828203905092915050565b7f4e487b7100000000000000000000000000000000000000000000000000000000600052603260045260246000fd5b7f4e487b7100000000000000000000000000000000000000000000000000000000600052601260045260246000fd5b600061140682610c10565b915061141183610c10565b925082611421576114206113cc565b5b828206905092915050565b600081905092915050565b50565b600061144760008361142c565b915061145282611437565b600082019050919050565b60006114688261143a565b915081905091905056fea2646970667358221220541f9b3759a591df812a5caf9bca8226e96645bfc778e089ad68beb9b5874aa864736f6c63430008080033",
  "linkReferences": {},
  "deployedLinkReferences": {}
}